:020000040800F2
:1000000070060020CD010008DD0E0008D50E0008A6
:10001000D90E0008D30200087F0F0008000000007E
:10002000000000000000000000000000090F0008B0
:10003000D702000800000000DF0E00080B0F0008C8
:10004000E7010008E7010008E7010008E7010008F0
:10005000E7010008E7010008E7010008E7010008E0
:10006000E7010008D902000815030008E7010008AD
:10007000E7010008E7010008E7010008E7010008C0
:10008000E7010008E7010008E7010008E7010008B0
:10009000E7010008E7010008E7010008E7010008A0
:1000A000E7010008E7010008E7010008E701000890
:1000B000E7010008E7010008E7010008E701000880
:1000C000E7010008E7010008E7010008E701000870
:1000D000E7010008E7010008E7010008E701000860
:1000E000E7010008E7010008E7010008E701000850
:1000F000E7010008E7010008E7010008E701000840
:10010000E7010008E7010008E7010008E70100082F
:10011000E7010008E7010008E7010008E70100081F
:10012000E7010008E7010008E7010008E70100080F
:1001300000F002F800F03AF80AA090E8000C8244BF
:100140008344AAF10107DA4501D100F02FF8AFF29C
:10015000090EBAE80F0013F0010F18BFFB1A43F0A5
:1001600001031847900F0000B00F0000103A24BFA1
:1001700078C878C1FAD8520724BF30C830C144BF0C
:1001800004680C607047000000230024002500264E
:10019000103A28BF78C1FBD8520728BF30C148BFEA
:1001A0000B6070471FB51FBD10B510BD00F058F8AB
:1001B0001146FFF7F7FF00F07BFF00F076F803B47D
:1001C000FFF7F2FF03BC00F07DF80000094880470C
:1001D00009480047FEE7FEE7FEE7FEE7FEE7FEE729
:1001E000FEE7FEE7FEE7FEE704480549054A064B41
:1001F000704700007D0F00083101000870000020EA
:100200007006002070020020700200204FF00002F3
:1002100000B5134694469646203922BFA0E80C50FC
:10022000A0E80C50B1F12001BFF4F7AF090728BFD7
:10023000A0E80C5048BF0CC05DF804EB890028BF53
:1002400040F8042B08BF704748BF20F8022B11F07C
:10025000804F18BF00F8012B7047704770477047F8
:10026000754600F02BF8AE4605006946534620F06F
:100270000700854618B020B5FFF7B6FFBDE820405F
:100280004FF000064FF000074FF000084FF0000B52
:1002900021F00701AC46ACE8C009ACE8C009ACE805
:1002A000C009ACE8C0098D46704710B50446AFF3ED
:1002B00000802046BDE81040FFF781BF004870472E
:1002C0001000002001491820ABBEFEE72600020006
:1002D000704700BFFEE7704710B508200B49086063
:1002E000142000F037F80821094800F0E7F9012848
:1002F00000D110BD00BF2021054800F0E7F900BF84
:1003000008200249086000BFF3E700001404014020
:100310000018014010B510200B490860142000F0AF
:1003200019F81021094800F0C9F9012800D110BDC1
:1003300000BF2021064800F0C9F900BF1020024983
:10034000086000BFF3E700001404014000180140FA
:10035000000C014070B5044600F0C2F9064625467F
:10036000681C10B104480078054400BF00F0B8F9DB
:10037000801BA842FAD370BD0C0000202DE9F8477D
:10038000024600239C467BE14FF0010808FA03F483
:10039000D1F8008008EA0400A0427DD1DFF8F4A281
:1003A000D1F80480A8EB0A09D0453AD014DCB8F1A2
:1003B000030F50D009DCB8F1000F31D0B8F1010FB4
:1003C0001CD0B8F1020F49D120E0B8F1110F18D0BC
:1003D000B8F1120F42D11EE0B9F5881F25D006DC16
:1003E000B9F5803F20D0B9F5801F37D11AE0B9F5B3
:1003F000001F18D0B9F5041F30D117E0D1F80CC098
:100400002DE0D1F80C8008F1040C28E0D1F80C8024
:1004100008F1080C23E0D1F80C8008F10C0C1EE068
:1004200000BF00BF00BF00BF00BF00BFD1F8088001
:10043000B8F1000F02D14FF0040C0BE0D1F80880A6
:10044000B8F1010F03D14FF0080C146102E04FF036
:10045000080C546103E04FF0000C00E000BF00BF47
:10046000FF2801D8904601E002F104084646FF2823
:1004700002D84FEA830803E0A3F108084FEA88088E
:100480004746D6F800804FF00F0909FA07F928EA25
:1004900009080CFA07F900E07AE048EA0908C6F80A
:1004A0000080D1F8048008F08058B8F1805F6FD1E7
:1004B00000BFDFF8E481D8F8188048F00108DFF8C1
:1004C000D891C9F81880C846D8F8188008F00108F3
:1004D000CDF8008000BF00BF4FEAB9384FEA93095A
:1004E00058F829504FEA83784FEA18794FF00F08EF
:1004F00008FA09F825EA0805DFF8A081424502D18B
:100500004FF0000824E0DFF89881424502D14FF017
:1005100001081DE0DFF88C81424502D14FF002084E
:1005200016E0DFF88481424502D14FF003080FE066
:10053000DFF87881424502D14FF0040808E0DFF887
:100540007081424502D14FF0050801E04FF00608E6
:100550004FEA83794FEA197908FA09F848EA05055C
:10056000DFF850814FEA930948F82950D1F8048008
:1005700008F48018B8F5801F0BD1DFF83C81D8F85B
:10058000008048EA0008DFF83091C9F800800AE0EE
:1005900075E0DFF82481D8F8008028EA0008DFF849
:1005A0001891C9F80080D1F8048008F40018B8F553
:1005B000001F0ED1DFF8008108F10408D8F8008090
:1005C00048EA0008DFF8F09009F10409C9F8008052
:1005D0000DE0DFF8E48008F10408D8F8008028EA8C
:1005E0000008DFF8D49009F10409C9F80080D1F8B7
:1005F000048008F40038B8F5003F0ED1DFF8B88069
:10060000A8F10408D8F8008048EA0008DFF8A890AC
:10061000A9F10409C9F800800DE0DFF89C80A8F179
:100620000408D8F8008028EA0008DFF88C90A9F1C7
:100630000409C9F80080D1F8048008F48038B8F5BE
:10064000803F0ED1DFF87080A8F10808D8F800804C
:1006500048EA0008DFF86090A9F10809C9F80080AD
:100660000DE0DFF85480A8F10808D8F8008028EAE7
:100670000008DFF84490A9F10809C9F800805B1C64
:10068000D1F8008028FA03F8B8F1000F7FF47CAEAF
:10069000BDE8F8870000111000100240000801407A
:1006A000000C0140001001400014014000180140FE
:1006B000001C014008000140080401400246936804
:1006C0000B400BB1012000E00020704710B5C2685C
:1006D00021EA020302EA010443EA0443036110BD74
:1006E00001480068704700000400002003480068CB
:1006F0000349097808440149086070470400002054
:100700000C00002010B50848006840F010000649B1
:100710000860032000F080F80F2000F007F800F0D8
:100720002BF8002010BD00000020024070B50446E8
:100730000E4800784FF47A71B1FBF0F00C4909686B
:10074000B1FBF0F5284600F0ABFB08B1012070BD0D
:10075000102C07D200222146501E00F01EF805483A
:10076000046001E00120F2E70020F0E70C00002027
:1007700000000020080000207047014608460028BD
:1007800009DB00F01F0301229A4043099B0003F19B
:10079000E023C3F8002100BF70472DE9F05F8046D9
:1007A0000D461646002700F0EDFB074639462A465F
:1007B000334601F00700C0F1070ABAF1040F02D96D
:1007C0004FF0040A01E0C0F1070AD14600F1040A23
:1007D000BAF1070F02D24FF0000A01E0A0F1030ABC
:1007E000D4464FF0010A0AFA09FAAAF1010A0AEA04
:1007F000020A0AFA0CFA4FF0010B0BFA0CFBABF1F0
:10080000010B0BEA030B4AEA0B042146404600F0B9
:10081000C1FBBDE8F09F000000BF00F00702064BDF
:1008200019684FF6FF031940044B0B4343EA0221BA
:10083000014B196000BF70470CED00E00000FA05A5
:1008400070B504460D460CB9012070BD5A480068C9
:1008500000F00700A8420ED25748006820F00700B9
:100860002843554908600846006800F00700A84280
:1008700001D00120E9E7207800F0020002281DD114
:10088000207800F00400042805D14C48406840F46A
:10089000E0604A494860207800F00800082805D147
:1008A0004648406840F460504449486043484068C6
:1008B00020F0F000A168084340494860207800F02B
:1008C000010078B36068012806D13C48006800F454
:1008D000003090B90120B8E76068022806D1374897
:1008E000006800F0007040B90120AEE733480068AE
:1008F00000F0020008B90120A7E73048406820F066
:100900000300616808432D494860FFF7E9FE064689
:1009100009E0FFF7E5FE801B41F28831884202D9E9
:10092000032092E707E02548406800F00C0061686A
:10093000B0EB810FEDD12048006800F00700A8421D
:100940000ED91D48006820F0070028431A490860A6
:100950000846006800F00700A84201D0012074E7B3
:10096000207800F00400042807D11448406820F4DF
:10097000E060E168084311494860207800F0080011
:10098000082808D10D48406820F46050216940EAE9
:10099000C1000A49486000F019F808494968C1F3E4
:1009A0000311074A515CC8400649086006480068C0
:1009B000FFF7BCFE002048E7002002400010024084
:1009C000CA100008000000200800002070B50021B7
:1009D0000022002400230020134D696801F00C055B
:1009E000F5B1042D02D0082D19D101E00F4819E00E
:1009F0000F4DC1F38346AB5D01F4803555B10A4D0F
:100A00006D68C5F340450B4E725D084D5D43B5FB07
:100A1000F2F402E0084D03FB05F4204602E000BFBB
:100A2000024800BF00BF70BD0010024000127A00F3
:100A3000E2100008F210000800093D00F8B5044675
:100A40000CB90120F8BD207800F00100002878D012
:100A5000F848406800F00C0004280CD0F5484068C5
:100A600000F00C00082811D1F248406800F48030F2
:100A7000B0F5803F0AD1EF48006800F4003000284C
:100A80005FD0606800285CD10120DBE700BF6068B0
:100A9000B0F5803F06D1E748006840F48030E54972
:100AA000086028E0606858B9E248006820F48030A7
:100AB000E04908600846006820F4802008601AE0D9
:100AC0006068B0F5A02F0BD1DA48006840F48020B0
:100AD000D84908600846006840F4803008600AE0A1
:100AE000D448006820F48030D24908600846006885
:100AF00020F48020086000BF606888B1FFF7F0FD37
:100B0000054606E0FFF7ECFD401B642801D90320F1
:100B100098E7C848006800F400300028F2D010E0E0
:100B2000FFF7DEFD054606E0FFF7DAFD401B64280F
:100B300001D9032086E7BF48006800F40030002890
:100B4000F2D1207800F00200022857D1B94840685D
:100B500000F00C0050B1B748406800F00C000828C5
:100B600018D1B448406800F4803098B9B1480068A2
:100B700000F0020020B12069012801D0012061E7C6
:100B8000AC48006820F0F800616940EAC100A9495A
:100B9000086033E02069E8B10120A7490860FFF749
:100BA0009FFD054606E0FFF79BFD401B022801D98B
:100BB000032047E79F48006800F002000028F2D0B9
:100BC0009C48006820F0F800616940EAC10099493A
:100BD000086013E0002098490860FFF781FD054692
:100BE00006E0FFF77DFD401B022801D9032029E71D
:100BF0009048006800F002000028F2D1207800F050
:100C0000080008282DD1A069B8B101208B490860DF
:100C1000FFF766FD054606E0FFF762FD401B022870
:100C200001D903200EE78348406A00F00200002843
:100C3000F2D0012000F054F913E000207F49086051
:100C4000FFF74EFD054606E0FFF74AFD401B022870
:100C500001D90320F6E67748406A00F00200002838
:100C6000F2D1207800F00400042873D100277148E5
:100C7000C06900F0805070B900BF6E48C06940F094
:100C800080506C49C8610846C06900F080500090EF
:100C900000BF00BF01276A48006800F48070B0B947
:100CA0006748006840F4807065490860FFF718FDE8
:100CB000054606E0FFF714FD401B642801D9032018
:100CC000C0E65F48006800F480700028F2D000BFE2
:100CD000E068012806D15748006A40F001005549F4
:100CE000086227E0E06858B95248006A20F0010025
:100CF000504908620846006A20F00400086219E0C2
:100D0000E06805280BD14B48006A40F004004949CF
:100D100008620846006A40F0010008620AE045489F
:100D2000006A20F00100434908620846006A20F08A
:100D30000400086200BFE068A0B1FFF7D1FC0546DF
:100D400009E0FFF7CDFC401B41F28831884202D90F
:100D5000032077E622E03748006A00F0020000280E
:100D6000EFD012E0FFF7BCFC054608E0FFF7B8FC47
:100D7000401B41F28831884201D9032062E62D48A8
:100D8000006A00F002000028F0D1012F05D12948A7
:100D9000C06920F080502749C86100BFE069C8B32E
:100DA0002448406800F00C00082860D0E069022860
:100DB00048D1002020490866FFF792FC054606E06E
:100DC000FFF78EFC401B022801D903203AE61948A0
:100DD000006800F000700028F2D1206AB0F5803F72
:100DE00007D11448406820F40030A1680843114935
:100DF0004860D4E9080108430E49496821F4741198
:100E000008430C49486001200B490866FFF768FC5D
:100E1000054607E03DE0FFF763FC401B022801D9CF
:100E200003200FE60348006800F000700028F2D0AD
:100E30002FE00000001002400000424280044242C5
:100E400000700040002014490866FFF749FC054681
:100E500006E0FFF745FC401B022801D90320F1E51D
:100E60000E48006800F000700028F2D111E0E0693F
:100E7000012800D1E6E50948466806F48031206A79
:100E8000814204D106F47011606A814201D00120D0
:100E9000D8E50020D6E500000000424200100240E4
:100EA00070B504462546681EB0F1807F01D301204D
:100EB0000FE0681E4FF0E02148610F214FF0FF3036
:100EC00000F068F800204FF0E021886107200861F9
:100ED000002070BD00BFFEE700BFFEE7704770470F
:100EE00008B508490968C9084FF47A72B1FBF2F1F4
:100EF0004143009100BF00BF00994A1E00920029A3
:100F0000F9D108BD00000020704710B5FFF7EEFBD7
:100F100010BD00B58FB014210AA8FFF777F928217A
:100F20006846FFF773F9012000900004019000204B
:100F3000029002200790C10308914FF4E01109913B
:100F40006846FFF77BFD08B100BFFEE70F200A905F
:100F500002200B9000200C900E904FF480600D90BA
:100F600002210AA8FFF76CFC08B100BFFEE70022CF
:100F70001146501EFFF711FC0FB000BD704700BFB7
:100F8000FEE7000002480068C0F30220704700003E
:100F90000CED00E010B5002804DB0A07130E054A2B
:100FA000135406E00A07140E034A00F00F031B1F38
:100FB000D45410BD00E400E018ED00E000B585B0A9
:100FC00000BF1B48806940F040001949886108460D
:100FD000806900F04000009000BF00BF0020019039
:100FE0000290039004901020019012480290032078
:100FF00004900120039001A90F48FFF7BFF90820D2
:10100000019001A90C48FFF7B9F90920FFF7B5FBDA
:101010000A20FFF7B2FB012202210920FFF7BDFBE6
:10102000022211460A20FFF7B8FB05B000BD000000
:1010300000100240000021100018014000B585B0EA
:1010400000BF1848806940F0400016498861084692
:10105000806900F04000009000BF00BF00BF08465C
:10106000806940F0080088610846806900F0080047
:10107000009000BF00BF00200190029003900490F8
:101080000120029020200190032004900220039070
:1010900001A90548FFF772F901A90448FFF76EF9A5
:1010A00005B000BD0010024000180140000C0140D6
:1010B000FFF728FBFFF72DFFFFF7C0FFFFF77EFFCD
:1010C00002E06420FFF746F9FBE7000000000000A3
:1010D00000000102030406070809000000000102E5
:1010E000030402030405060708090A0B0C0D0E0F82
:1010F0001010010214110008000000201000000070
:101100006C01000824110008100000206006000097
:101110008801000800127A000000000010000000A2
:0411200001000000CA
:0400000508000131BD
:00000001FF
