:020000040800F2
:1000000048070020CD010008111300080D13000857
:100010000F130008CD030008B1160008000000000F
:10002000000000000000000000000000391300087C
:10003000CF03000800000000131300083B13000862
:10004000E7010008E7010008E7010008E7010008F0
:10005000E7010008E7010008E7010008E7010008E0
:10006000E7010008D103000801040008E7010008C7
:10007000E7010008E7010008E7010008E7010008C0
:10008000E7010008E7010008E7010008E7010008B0
:10009000E7010008E7010008E7010008E7010008A0
:1000A000E7010008E7010008E7010008E701000890
:1000B000E7010008E7010008E7010008E701000880
:1000C000E7010008E7010008E7010008E701000870
:1000D000E7010008A5160008E7010008E70100088D
:1000E000E7010008E7010008E7010008E701000850
:1000F000E7010008E7010008E7010008E701000840
:10010000E7010008E7010008E7010008E70100082F
:10011000E7010008E7010008E7010008E70100081F
:10012000E7010008E7010008E7010008E70100080F
:1001300000F002F800F03AF80AA090E8000C8244BF
:100140008344AAF10107DA4501D100F02FF8AFF29C
:10015000090EBAE80F0013F0010F18BFFB1A43F0A5
:10016000010318471C1700003C170000103A24BF79
:1001700078C878C1FAD8520724BF30C830C144BF0C
:1001800004680C607047000000230024002500264E
:10019000103A28BF78C1FBD8520728BF30C148BFEA
:1001A0000B6070471FB51FBD10B510BD00F0C8F83B
:1001B0001146FFF7F7FF01F0FBFA00F0FAF803B47D
:1001C000FFF7F2FF03BC01F084FA00000948804702
:1001D00009480047FEE7FEE7FEE7FEE7FEE7FEE729
:1001E000FEE7FEE7FEE7FEE704480549054A064B41
:1001F000704700009F1300083101000848010020EB
:1002000048070020480300204803002070470000F2
:100210000FB4044910B503AA029800F063F810BCAB
:100220005DF814FB0800002010B5203AC0F00B80E8
:10023000B1E81850203AA0E81850B1E81850A0E8EA
:100240001850BFF4F5AF5FEA027C24BFB1E8185044
:10025000A0E8185044BF18C918C0BDE810405FEAB4
:10026000827C24BF51F8043B40F8043B08BF704730
:10027000D20728BF31F8023B48BF11F8012B28BF35
:1002800020F8023B48BF00F8012B70474FF00002F6
:1002900000B5134694469646203922BFA0E80C507C
:1002A000A0E80C50B1F12001BFF4F7AF090728BF57
:1002B000A0E80C5048BF0CC05DF804EB890028BFD3
:1002C00040F8042B08BF704748BF20F8022B11F0FC
:1002D000804F18BF00F8012B704770477047704778
:1002E00070470000074B70B50D467B4400F011F8D5
:1002F0000446284600F020F810B14FF0FF3070BDE2
:10030000204670BD5314000001694A1C0261087840
:10031000704700B58FB0CDE9013100210591054945
:100320007944CDE903101146684600F02EF80FB06D
:1003300000BD0000E5FFFFFF007B00F0800070477C
:10034000754600F03FF8AE4605006946534620F07A
:100350000700854618B020B5FFF746FFBDE82040EE
:100360004FF000064FF000074FF000084FF0000B71
:1003700021F00701AC46ACE8C009ACE8C009ACE824
:10038000C009ACE8C0098D4670472DE9F04106462A
:100390000024D6E90170F5688046304603E0414606
:1003A000B847641C3046A8470028F8D12046BDE86D
:1003B000F08110B50446AFF300802046BDE8104040
:1003C000FFF7FDBE00487047E4000020FEE77047DD
:1003D00070B5094C08252560142000F0F7F8074E89
:1003E0000821304600F00EFA012804D020213046C2
:1003F00000F00FFA256070BD1404014000180140A0
:1004000070B5094C10252560142000F0DFF810218C
:10041000064800F0F7F9012804D02021044800F034
:10042000F8F9256070BD0000140401400018014077
:10043000000C014010B590F821100022022905D0CF
:100440000421816380F82020012010BD01680B6821
:1004500023F00E030B6001680B6823F001030B60AF
:1004600090F84030C46B012101FA03F3636080F817
:10047000211080F82020104610BD00002DE9F05F0B
:10048000002590F82110022903D004218163012561
:1004900095E001680A6822F00E020A6001680A68A5
:1004A00022F001020A60474E464FB215DFF814C130
:1004B000DFF81081DFF80C91DFF808A1DFF804B154
:1004C0000168783F13011402ACF1640CA8F15008E4
:1004D000A9F13C09AAF1280AABF1140B4FF4801ED4
:1004E000B1422FD9B94201D1012227E0614501D1A2
:1004F000102223E0414521D0494501D11A461DE093
:10050000514501D1224619E0594501D1724615E005
:100510002D4EB14201D1012210E02B4E1436B142D2
:1005200001D110220AE0284E2836B14206D0264AD0
:100530003C32914201D11A4600E022462249091F6D
:100540000A6033E0B94201D101222CE0614501D1BA
:10055000102228E0414526D0494501D11A4622E023
:10056000514501D122461EE0594501D172461AE09B
:10057000B14202D14FF0807215E0134EB14201D169
:10058000012210E0104E1436B14201D110220AE0CF
:100590000D4E2836B14206D00B4A3C32914201D171
:1005A0001A4600E02246074980394A60012180F856
:1005B0002110002180F82010416B01B188472846A6
:1005C000BDE8F09F800002400804024070B5044678
:1005D00000F028F90546601C02D004480078044465
:1005E00000F020F9401BA042FAD370BD100000209B
:1005F0002DE9F84F00240023DFF8E0914FF00F08B9
:10060000A9F1040B09F1040AABF1040EDFE00127A4
:10061000A7403A40BA4275D1DFF8C4C14D68A5EB96
:100620000C0665452BD00DDC032D34D005DC35B32D
:10063000012D19D0022D2FD11BE0112D16D0122D16
:100640002AD119E0B6F5881F19D006DCB6F5803F2F
:1006500015D0B6F5801F1FD111E0B6F5001F0ED0E2
:10066000B6F5041F18D10AE0CB6815E0CB681B1D56
:1006700012E0CB6808330FE0CB680C330CE08B68DA
:1006800023B1012B04D00823476105E0042303E0D4
:100690000823076100E00023FF2A01D8054601E096
:1006A00000F1040502D84FEA840603E0A4F108062D
:1006B0004FEA86062F6808FA06FC27EA0C0703FAB9
:1006C00006F647EA06072F604D68ED007ED5454DDA
:1006D000AE6946F00106AE61AD6905F00105009511
:1006E000414D24F003067719BE68A5072D0F08FABF
:1006F00005FC26EA0C06DFF8F4C0604503D14FF094
:10070000000C25E062E0DFF8E8C0604502D14FF060
:10071000010C1DE0DFF8DCC0604502D14FF0020C97
:1007200016E0DFF8D4C0604502D14FF0030C0FE0B3
:10073000DFF8C8C0604502D14FF0040C08E0DFF8D4
:10074000C0C0604502D14FF0050C01E04FF0060C2F
:100750000CFA05FC4CEA060CC7F808C04D68ED021F
:1007600005D5D9F800501543C9F8005004E0D9F870
:1007700000509543C9F800504D68AD0205D5DAF830
:1007800000501543CAF8005004E0DAF800509543D1
:10079000CAF800504D68AD0305D5DBF8005015438D
:1007A000CBF8005004E0DBF800509543CBF8005044
:1007B0004D68ED0305D5DEF800501543CEF8005026
:1007C00004E0DEF800509543CEF80050641C0A683F
:1007D00032FA04F57FF41BAFBDE8F88F080401403E
:1007E000000011100010024000000140000801400C
:1007F000000C0140001001400014014000180140AD
:10080000001C01408068084201D001207047002090
:100810007047C26821EA02030A4043EA02410161CB
:1008200070470000014880687047000010000020F9
:1008300002488168027811448160704710000020EE
:1008400010B50748016841F010010160032000F075
:1008500059F80F2000F006F800F026F8002010BD2F
:100860000020024070B504460D4D4FF47A7128788F
:10087000B1FBF0F00B490968B1FBF0F000F00CFBA4
:1008800008B1012070BD102C07D200222146501E55
:1008900000F018F86C60002070BD012070BD0000F1
:1008A000100000200C0000207047002809DB00F039
:1008B0001F02012191404009800000F1E020C0F8B2
:1008C00000117047F0B40D460D4B1B68C3F30223B3
:1008D000C3F10704042C00D90424191D072901D2EF
:1008E000002300E0DB1E012606FA04F1491E294020
:1008F00099409E40761E16403143F0BC00F0D9BEB0
:100900000CED00E000F00701054A10684FF6FF0308
:10091000184040EA01200349084310607047000076
:100920000CED00E00000FA052DE9F04704460D4605
:10093000002C17D0DFF83081D8F8000000F0070055
:10094000A84211D2D8F8000020F007002843C8F8C8
:100950000000D8F8000000F00700A84204D00120F1
:10096000BDE8F0870120FBE72068404E810712D5E3
:10097000400703D5706840F4E0607060207800079D
:1009800003D5706840F4605070607068A16820F012
:10099000F000084370602078C0072CD06068012800
:1009A00006D0022809D0316889070BD40120D7E787
:1009B0003168890306D40120D2E73168890101D466
:1009C0000120CDE7716821F0030101437160FFF759
:1009D00029FF074641F2883906E0FFF723FFC01BD5
:1009E000484501D90320BBE77068616800F00C003E
:1009F000B0EB810FF1D1D8F8000000F00700A84259
:100A00000ED9D8F8000020F007002843C8F80000ED
:100A1000D8F8000000F00700A84201D001209FE7AD
:100A20002078400705D57068E16820F4E06008434D
:100A300070602078000706D57068216920F4605046
:100A400040EAC100706000F03FF87168084AC1F3E5
:100A50000311515CC8400749086007480068FFF768
:100A600001FF00207CE7000000200240001002404F
:100A7000541800080C0000201400002001480068F1
:100A8000704700000C00002000B5FFF7F7FF044995
:100A90004968044AC1F30221515CC84000BD00000E
:100AA000001002406418000800B5FFF7E7FF044992
:100AB0004968044AC1F3C221515CC84000BD00002E
:100AC00000100240641800080E4B59680E4801F0EF
:100AD0000C02042A11D0082A0FD10C48C1F383421A
:100AE000805CC9030AD55968084AC1F34041921E87
:100AF000515C054A5043B0FBF1F07047044948434C
:100B0000704700000010024000127A006E180008C2
:100B100000093D002DE9F84F0446002C0ED0207846
:100B2000D94DC0075ED06868C0F3810001280BD0A2
:100B30006868C0F38100022803D00CE00120BDE802
:100B4000F88F6868C00306D5286880034AD56068B6
:100B5000A8BB0120F3E76068B0F5803F11D0A8B1D1
:100B6000B0F5A02F1BD0286820F4803028602868BA
:100B700020F480202860606830B3FFF753FE0646FB
:100B80001EE0286840F480302860F4E7286820F4EC
:100B900080302860286820F480202860EBE72868EF
:100BA00040F480202860286840F480302860E2E724
:100BB000FFF738FE801B642802D90320BFE711E04D
:100BC00028688003F4D50DE0FFF72CFE064606E00A
:100BD000FFF728FE801B642801D90320AFE72868AF
:100BE0008003F5D42078DFF8A48280074FF0010A53
:100BF0004FF0000945D5686810F00C0F07D0686801
:100C0000C0F38100022812D16868C0030FD428689D
:100C1000800704D52069012801D001208FE72868CA
:100C2000616920F0F80040EAC100286029E02069ED
:100C3000B8B1C8F800A0FFF7F5FD064606E0FFF7DB
:100C4000F1FD801B022801D9032078E7286880077E
:100C5000F5D52868616920F0F80040EAC1002860F5
:100C60000FE0C8F80090FFF7DDFD064606E0FFF74D
:100C7000D9FD801B022801D9032060E7286880077E
:100C8000F5D42078000726D58148A16999B1C0F82C
:100C900000A0FFF7C7FD064606E0FFF7C3FD801B77
:100CA000022801D903204AE7686A8007F5D50120A8
:100CB00000F030FB0FE0C0F80090FFF7B3FD0646F0
:100CC00006E0FFF7AFFD801B022801D9032036E7BD
:100CD000686A8007F5D42078400773D50026E86954
:100CE000C00008D4E86940F08050E861E86900F08D
:100CF000805000900126DFF89CB1DBF80000C005B1
:100D000014D4DBF8000040F48070CBF80000FFF74B
:100D100089FD074606E0FFF785FDC01B642801D961
:100D200003200CE7DBF80000C005F4D5E0680128DB
:100D300012D0B0B105281DD0286A20F00100286229
:100D4000286A20F004002862E06841F2883B28B35A
:100D5000FFF768FD07461DE0286A40F001002862A1
:100D6000F2E7286A20F001002862286A20F00400D7
:100D70002862E9E7286A40F004002862286A40F007
:100D800001002862E0E7FFF74DFDC01B584501D97F
:100D90000320D4E6286A8007F5D50DE0FFF742FD71
:100DA000074606E0FFF73EFDC01B584501D903206A
:100DB000C5E6286A8007F5D4012E03D1E86920F042
:100DC0008050E861E069A0B36968C1F3810102293C
:100DD00046D0022805D0C8F86090FFF723FD0446EE
:100DE0003AE0C8F86090FFF71DFD064606E0FFF701
:100DF00019FD801B022801D90320A0E62868800184
:100E0000F5D4206AB0F5803F05D16868A16820F468
:100E1000003008436860D4E908010843696821F498
:100E2000741108436860C8F860A0FFF7FBFC044633
:100E300007E026E0FFF7F6FC001B022801D903209B
:100E40007DE628688001F5D51BE0FFF7EBFC001B71
:100E5000022801D9032072E628688001F5D410E049
:100E600001280CD06868226A00F48031914204D1D4
:100E7000616A00F47010884203D001205FE601200F
:100E80005DE600205BE600000010024000004242E8
:100E9000800442420070004010B5401EB0F1807FD7
:100EA00001D3012010BD4FF0E02460610F216017D5
:100EB00000F0FFFB0020A06107202061002010BD92
:100EC00070477047F8B5044622681068D1685369C6
:100ED00000F00F06002E08D1850606D58D0604D534
:100EE0002046BDE8F84000F097BA0025002E66D0F5
:100EF00003F0010601F49077374360D0C20705D0B4
:100F0000CA0503D5626C42F001026264420705D54E
:100F1000DA0703D0626C42F002026264820705D5F0
:100F2000DA0703D0626C42F004026264020707D55C
:100F300001F02002324303D0626C42F00802626486
:100F4000626C002A31D0800604D5880602D520467E
:100F500000F062FA20684069C0F38010616C0907F4
:100F600000D438B3204600F023FA206840694006D8
:100F70001CD52068143050E8001F21F0400140E8E3
:100F80000012002AF5D1E06B60B159494163E06B72
:100F9000FFF774FA002808D0E06B416B01B0BDE8A0
:100FA000F04008472046FFF78CFFF8BD2046FFF7CA
:100FB00088FFF8BD2046FFF784FF6564F8BD236B0A
:100FC000012B7DD1C3067BD5CB067ED5106850683A
:100FD000009050694FF0200340064FF0020643D5C1
:100FE000E16B0868406880B20028E7D0A28D824299
:100FF000E4D9E085886920282DD020680C3050E89D
:10100000001F21F4807140E80012002AF5D1206809
:10101000143050E8001F21F0010140E80012002ABE
:10102000F5D12068143050E8001F21F0400140E85D
:101030000012002AF5D184F84230256320680C3074
:1010400050E8001F21F0100140E80012002AF5D1FD
:10105000E06BFFF7EFF96663A08DE18D401A81B276
:101060002046FFF72DFFF8BDA08DE18D401A81B21B
:10107000E08D0028F7D00029F5D020680C3050E82A
:10108000002F22F4907240E80027002FF5D120684D
:10109000143050E8002F22F0010240E80027002F12
:1010A000F5D184F84230256320680C3050E8002FD9
:1010B00022F0100240E80023002BF5D1666300E027
:1010C00003E02046FFF7FCFEF8BD020606D50A063F
:1010D00004D52046BDE8F84000F07ABA4006F3D5C2
:1010E0004806F1D52046BDE8F84000F088B9000078
:1010F000A113000870B50446002C04D094F84100F8
:10110000002510B106E0012070BD84F84050204653
:1011100000F024F8242084F841002068C16821F4FC
:101120000051C160204600F0DBF92068016921F41C
:10113000904101612068416921F02A0141612068E4
:10114000C16841F40051C1606564202084F8410009
:1011500084F842006563002070BD000030B585B0A2
:1011600001681A4881422ED11948816941F0040171
:101170008161816901F004010091816941F480413C
:101180008161806900F480400090002002904FF45B
:10119000806101910390032404940E4D01A9284617
:1011A000FFF726FA0221029109020191049401A994
:1011B0002846FFF71DFA2520FFF777FB00220221C2
:1011C0002520FFF77FFB05B030BD0000003801404F
:1011D000001002400008014090F84230202B01D05E
:1011E0000220704721B11AB10023036300F0D4B983
:1011F0000120704730B400681549884226D1154A4D
:101200004FF00003114650880978440407D50A2995
:1012100001D053800FE040F4004050800BE00D29D6
:1012200010D00D4DC0F30D042955401C80B25080E4
:101230007F2800D953800848012230BC054948382E
:10124000FFF7CABF40F480405080F4E730BC7047DD
:101250000038014000000020640000202DE9F84320
:1012600004460E4615461F4694F84100202802D039
:101270000220BDE8F8837EB175B1002060642120B2
:1012800084F84100FFF7CEFA8146A584E584A06882
:10129000B0F5805F02D003E00120EAE7206920B1C9
:1012A000354600264FF0200815E00025FAE74B46AA
:1012B000002280212046009700F0B9F918B184F887
:1012C00041800320D5E7ADB1216815F8010B4860D6
:1012D000E08C401EE084E08C0028E8D14B460022E0
:1012E00040212046009700F0A2F950B184F84180D7
:1012F0000320BEE736F8020B2168C0F308004860FF
:10130000E6E784F841800020B3E77047FEE7FEE798
:101310007047704708B507494FF4FA520968B1FBA6
:10132000F2F14143009100BF0098411E0091FAD2B2
:1013300008BD00000C0000207047FFF779BA30B5F7
:101340008FB014210AA8FEF7A1FF28216846FEF7F6
:101350009DFF0120009000040190002402940225CA
:10136000079508904FF4E01009906846FFF7D2FB0C
:1013700000B1FEE70F200A900B950C940E944FF4E9
:1013800080600D9002210AA8FFF7CEFA00B1FEE7B7
:1013900000221146501EFFF795FA0FB030BD70477E
:1013A00010B5406A0021C185C184FFF78AFD10BDD8
:1013B00001680C3151E8002F22F4907241E80023BB
:1013C000002BF5D10168143151E8002F22F0010201
:1013D00041E80023002BF5D1016B012909D10168F7
:1013E0000C3151E8002F22F0100241E80023002BBD
:1013F000F5D1202180F8421000210163704710B51B
:101400000168CA6822F04002CA60202180F84110B9
:10141000FFF77BFF002010BD08B590F8421022298D
:1014200001D0022008BD82684FF480539A4201D156
:10143000016921B1816A9A421DD052B10BE0816AE3
:1014400002685268C2F308020A80816A891C8162BC
:1014500009E002697AB10268526802F07F020A70FC
:10146000816A491C8162C18D491E0904090CC1852C
:1014700005D0002008BD026852680A70F0E70168D4
:10148000CA6822F02002CA600168CA6822F4807229
:10149000CA6001684A6922F001024A61202180F88D
:1014A000421000214163026B012A03D0FFF7A2FE24
:1014B000002008BD016301680C3151E8002F22F0C3
:1014C000100241E80023002BF5D101680A68D2061A
:1014D00002D50A6849680091818DFFF7F1FCE7E7C2
:1014E00070B5044620680169E26821F44051114357
:1014F0000161A16820690143606901432068C268F5
:1015000041F20C639A430A43C26020684169A269B0
:1015100021F44071114341611E492068884202D183
:10152000FFF7C2FA01E0FFF7AFFA00EBC00101EBF1
:101530000010616864228900B0FBF1F3B3FBF2F3A1
:101540006FF018067343B0FBF1F5B0FBF1F605EB55
:101550008305322303EB0515B5FBF2F5B6FBF2F676
:1015600005F0F00505EB0615B0FBF1F6B0FBF1F068
:10157000B0FBF2F06FF01801484306EB800003EB7C
:101580000010B0FBF2F0216800F00F0028448860E2
:1015900070BD00000038014081628285C285002153
:1015A0004164222180F842100169002904D00168B9
:1015B000CA6842F48072CA6001684A6942F0010256
:1015C0004A610068C16841F02001C1600020704795
:1015D00090F84110212901D0022070478168B1F5AF
:1015E000805F01D1016961B1016A4A1C026202682F
:1015F00009785160C18C491E0904090CC1840AD0C4
:1016000013E0016A02680988C1F308015160016AA8
:10161000891C0162EEE70168CA6822F08002CA6094
:101620000068C16841F04001C160002070472DE9A9
:10163000F84304460D4617469846089E25E0701C60
:1016400023D0FFF7EFF8A0EB0800B0421BD8D6B1CB
:101650002068C168490718D5802D16D0402D14D0B8
:101660000168C943090710D400252168096840684A
:1016700000902046FFF79CFE0820606484F84050EC
:101680000120BDE8F8830320FBE72068006835EA05
:10169000000004D00020B842D1D00020F1E70120A2
:1016A000F9E700000148FFF70DBC00001C00002016
:1016B000FEE70907090E002804DB00F1E02080F8AE
:1016C0000014704700F00F0000F1E02080F8141DB6
:1016D0007047704710B586B01648816941F04001E7
:1016E0008161806900F04000019010200290124852
:1016F00003900320059001200490104C02A920467D
:10170000FEF776FF0821029102A92046FEF770FF3E
:101710000920FFF7CAF80A20FFF7C7F801220221C3
:101720000920FFF7CFF8022211460A20FFF7CAF876
:1017300006B010BD0010024000002110001801404A
:1017400013B54FF0FF33012269460248FFF786FDCB
:1017500000981CBD1C00002000B585B011488169AF
:1017600041F040018161816901F04001009181698E
:1017700041F008018161806900F0080000900120BB
:10178000029020200190032004900220039001A9E0
:101790000548FEF72DFF01A90448FEF729FF05B013
:1017A00000BD00000010024000180140000C014084
:1017B000FFF746F8FFF7C3FDFFF7CEFFFFF78AFFFD
:1017C00000F024F80E4C0F4D00264FF47A77608815
:1017D000C10B10D00B49C0F30D023B4648310948FC
:1017E000FFF73CFD668028680168C9434906FBD4C1
:1017F00005A0FEF70DFD0A20FEF7E8FEE7E7000072
:10180000000000201C0000200D0A000000B587B079
:101810004FF4E13000900020019002900390059079
:101820000C21049106900948074902C01C22694610
:10183000FEF7FAFC0548FFF75DFC01220449034866
:10184000FFF7CAFC07B000BD003801401C000020B3
:10185000000000200000000000000000010203045E
:101860000607080900000000010203040102020348
:101870000405060708090A0B0C0D0E0F10100000D6
:10188000A0180008000000201C0000006C010008E7
:10189000BC1800081C0000202C070000880100086C
:1018A00000000000000000000000000000127A00AC
:0C18B0000100000010000000000000001B
:0400000508000131BD
:00000001FF
